:1000000010C029C0CAC027C07DC025C024C023C0DD
:1000100022C0D4C020C01FC01EC01DC01CC01BC039
:100020001AC011241FBECFE5D2E0DEBFCDBF10E065
:10003000A0E6B0E0EAE1F2E002C005900D92A03641
:10004000B107D9F710E0A0E6B0E001C01D92A336D9
:10005000B107E1F746C0D4CF9FEF9ABB1BBA14BAE1
:1000600095BB84E881BB88E782BB61E066B997B93C
:1000700020E030E083B3891711F021E030E040E068
:1000800050E083B3882311F041E050E0242335236E
:10009000232B59F0A89588E190E02BE00FB6F89457
:1000A000A89581BD0FBE21BDA8951FBC8DE08EBD5A
:1000B0008BE892E09BBD8ABD80E489BF80E88BBF5E
:1000C00088E085BF10BC69B98EE880BD80E98AB937
:1000D0001092600083B3809580936100109262005B
:1000E0000895CFE5D2E0DEBFCDBF80916200816090
:1000F000809362008091620080FFFCCFF894ACDFB7
:100100007894F8CF1F920F920FB60F9211248F930D
:100110009F93A89582B390E8892782BB83B380958B
:1001200090916100981731F0809162008160809316
:1001300062002CC0892F99278230910589F0833085
:1001400091051CF40197E9F01FC084309105A9F0D6
:100150008F3F9105C9F4299917C02A9915C011C07C
:100160008091620082FD0DC08091620081FF0BC012
:1001700087B191E0892787B907C08091620083FF2A
:1001800002C0389801C0389A109262009F918F91F6
:100190000F900FBE0F901F9018951F920F920FB6E1
:1001A0000F9211248F938091620088608093620087
:1001B0008F910F900FBE0F901F9018951F920F9266
:1001C0000FB60F9211242F938F939F932BB19CB155
:1001D0008091620082608093620080916000813033
:1001E00049F45C98992379F480916200846080934B
:1001F000620009C024FF09C05C98992321F481E0C2
:100200008093600002C0109260009F918F912F91A7
:0A0210000F900FBE0F901F9018957D
:00000001FF
