:020000020000FC
:1000000010C0189518951895FCC118951895ABC196
:1000100018955CC018951895189518951895189509
:10002000189512E00FE51EBF0DBFA89508E101BDB0
:100030000EE101BDA8950FEF0ABB00270BBB03E043
:1000400007BB04EF08BB002704BB0FEF05BB04E8A8
:1000500001BB08E702BB01E006B90FEF07B902E0F8
:1000600003BF00270FBD0CE00EBD02E009BF01E099
:1000700009B9002700BD0EE800BD0CB100270BB97F
:10008000579A549AB0E0A0E600E036E00D933A9516
:10009000E9F722246627772744244094642C0CE057
:1000A000302E4FEF20E02092870020928500209292
:1000B000860001E00093880000938900702EA895C7
:1000C000789425FD38D093D059D0FBCF5FB61F93DD
:1000D0000F930BB11CB1226003FD2AC004FD25C0A3
:1000E000313041F0323079F0333090F40F911F917C
:1000F0005FBE18951123E1F43395A3B3A095BB27F8
:100100002A9BB395F3CF119789F7B0E0A0E633951A
:100110000C91011711F01C9320681196A63631F747
:10012000B03021F721603327E1CF31E05C98DECF9A
:1001300033275B98DBCF2F7DA8D03A9409F0089540
:10014000A89527FD14C0389A40FC02C0979A01C0B8
:100150009798469401E0401639F400E820FF0AE839
:1001600021FF02E8402E2C7F0CE0302E08952F77DF
:10017000389B02C03898E8CF389AE6CF00916400E7
:10018000063F08F005EF10918200011709F4089569
:10019000009382000E31B8F0053FD0F40E51E0E03C
:1001A000FAE0E00FF21DE00FF21D05911491F894B2
:1001B000009381001093800009B7006409BF08B75D
:1001C000006408BF189509B70F7B09BF2F7B0895FE
:1001D00009B706FF0895F8942064F0918000E0913B
:1001E0008100FBBDEABD7497FDBDECBD1895299B50
:1001F000089562110895721521F014E1711709F044
:10020000089500916000043018F1083788F00C3828
:10021000F8F010917000121541F50C58FEE0E0E086
:10022000E00F049110917100011748F121F5089534
:1002300010917100121519F507570195FEE0E0E0E5
:10024000E00F049110917000011778F051F40895B7
:1002500010917000121109D01091710012110FC08D
:1002600008951395109370000895621108951A95DA
:100270001093700008951395109371000895621102
:1002800008951A95109371000895299B08C05499F8
:100290000895549A33270895109388000895549828
:1002A0002360109188001A95B9F700918900009396
:1002B0008800670C121D062D00951123E1F4A1E6BC
:1002C000B0E0E1E01127F0918400FE2309F0102F47
:1002D000F0918600FE2309F0160D1D93EE0F91F7A5
:1002E0001127F0918300F0FD102FF0918500F0FDB3
:1002F000160D1C930895206866240FEF1091860058
:10030000109384001091850010938300FCE0E3B308
:10031000E095E295EF70F49111E0E53020F4712E54
:10032000F093890003C07F2E10938900FF272A9B3A
:10033000FCEDF0936000F8E010918700E12FEE0FE4
:1003400013951093870015911093860014911093C4
:10035000850011FFB4CFE3B3E095E7701AE0E19FA9
:1003600000928700ACCF5FB60F9300917000041726
:10037000579500917100041757950091720004176A
:100380005795009173000417579500917400041756
:100390005795009175000417579500917600041742
:1003A0005795009177000417579501E0600F721D73
:1003B000783209F4772726FF01C05C615BBB042F0C
:1003C0000695069506955AEF501B52BF4395442358
:1003D000A9F4009161000093720000916200009303
:1003E0007300009163000093740000E000937500B7
:1003F000009376000093770041E020620F915FBE8A
:1004000018955FB60F931F9326FF04C02F7B00E95A
:1004100011E005C0206400918100109180001BBD97
:0C0420000ABD1F910F915FBE1895FFCF21
:100A0000FCFFF7EB30DC19CFFAC35CBAEAB16AAA93
:100A1000B0A3999D0D98F792478EEF89E5851F82C7
:100A2000967E437B21782C755E72B46F2C6DC36A01
:100A300075684166256420622F60515E855CCA5AE4
:100A40001E598257F3557154FC5292513350DF4E68
:100A5000954D544C1C4BEC49C548A5478D467C45EB
:100A600071446D436F4278418540993FB13ECF3D1F
:100A7000F13C183C443B743AA839E0381C385C37E8
:100A80009F36E63531357E34CF3323337A32D43155
:100A900031319030F22F572FBE2E272E932D022D5D
:100AA000722CE52B5A2BD02A492AC4294129BF2868
:100AB0004028C2274627CB265326DB256625F2246D
:100AC0007F240E249F233023C3225822EE21852128
:100AD0001D21B7205120ED1F8A1F281FC81E681E28
:100AE0000A1EAC1D501DF41C9A1C401CE81B901BD8
:100AF000391BE41A8F1A3B1AE71995194319F31891
:100B0000A31853180518B7176A171E17D316881697
:100B10003E16F415AC1563151C15D5148F14491425
:100B20000514C0137C133913F712B5127312321265
:100B3000F211B21172113411F510B7107A103D1084
:100B40000110C50F8A0F4F0F140FDA0EA00E670E9B
:100B50002F0EF60DBE0D870D500D190DE30CAD0CCB
:100B6000770C420C0D0CD90BA50B710B3E0B0B0B2C
:100B7000D90AA60A750A430A120AE109B0098009CE
:100B800050092109F108C2089408650837080908C6
:100B9000DC07AF07820755072907FD06D106A50622
:100BA0007A064F062406FA05D005A6054605E20496
:100BB0004C041A04E803B603840352032003EE0234
:100BC000BC028A0258022602F401C20190015E01B1
:080BD0002C01FA00C800960098
:0C080000580048006800600070005002C2
:1008140001000200040008001000200040008000D5
:020824000003CF
:1008280010002000080040000400800002000001C1
:020838000102BB
:08083C001800240042008102B3
:0E08500018003C007E00FF00E700C30081029C
:0C0864004900DB009200B60124016D0386
:0C087800110173016200EE008C009D0372
:10088C0049004B005B00DB00DA00D20092009600BE
:10089C00B600B601B401A401240125012D016D019E
:0408AC006901490392
:100C0000190A030201020305080C11161B232830E0
:100E000000020406080B0D0F111316181A1C1F21DF
:100E10002325272A2C2E30333537393B3E40424498
:100E200046494B4D4F525456585A5D5F6163666850
:100E30006A6C6E71737577797C7E80828587898B09
:100E40008D90929496999B9D9FA1A4A6A8AAACAFC1
:100E5000B1B3B5B8BABCBEC0C3C5C7C9CCCED0D279
:100E6000D4D7D9DBDDDFE2E4E6E8EBEDEFF1F3F632
:040E7000F8FAFCFF91
:00000001FF
